{
  "address": "0x9B8371BC9603C3C7b45FB5Fa9d0ACC052e84383c",
  "abi": [
    {
      "anonymous": false,
      "inputs": [
        {
          "indexed": true,
          "internalType": "address",
          "name": "_user",
          "type": "address"
        },
        {
          "indexed": false,
          "internalType": "address",
          "name": "_tokenAddress",
          "type": "address"
        },
        {
          "indexed": false,
          "internalType": "uint256",
          "name": "_tokenId",
          "type": "uint256"
        },
        {
          "indexed": false,
          "internalType": "uint256",
          "name": "_minPrice",
          "type": "uint256"
        },
        {
          "indexed": false,
          "internalType": "uint256",
          "name": "_tartTime",
          "type": "uint256"
        },
        {
          "indexed": false,
          "internalType": "uint256",
          "name": "_endTime",
          "type": "uint256"
        }
      ],
      "name": "AuctionCreated",
      "type": "event"
    },
    {
      "anonymous": false,
      "inputs": [
        {
          "indexed": true,
          "internalType": "address",
          "name": "_user",
          "type": "address"
        },
        {
          "indexed": false,
          "internalType": "address",
          "name": "_tokenAddress",
          "type": "address"
        },
        {
          "indexed": false,
          "internalType": "uint256",
          "name": "_tokenId",
          "type": "uint256"
        },
        {
          "indexed": false,
          "internalType": "uint256",
          "name": "_price",
          "type": "uint256"
        }
      ],
      "name": "BidPlaced",
      "type": "event"
    },
    {
      "anonymous": false,
      "inputs": [
        {
          "indexed": true,
          "internalType": "address",
          "name": "_user",
          "type": "address"
        },
        {
          "indexed": false,
          "internalType": "address",
          "name": "_tokenAddress",
          "type": "address"
        },
        {
          "indexed": false,
          "internalType": "uint256",
          "name": "_tokenId",
          "type": "uint256"
        }
      ],
      "name": "CancelAuction",
      "type": "event"
    },
    {
      "anonymous": false,
      "inputs": [
        {
          "indexed": true,
          "internalType": "address",
          "name": "_user",
          "type": "address"
        },
        {
          "indexed": false,
          "internalType": "address",
          "name": "_tokenAddress",
          "type": "address"
        },
        {
          "indexed": false,
          "internalType": "uint256",
          "name": "_tokenId",
          "type": "uint256"
        }
      ],
      "name": "CancelListing",
      "type": "event"
    },
    {
      "anonymous": false,
      "inputs": [
        {
          "indexed": false,
          "internalType": "uint256",
          "name": "_transactionFee",
          "type": "uint256"
        }
      ],
      "name": "ChangedTransactionFee",
      "type": "event"
    },
    {
      "anonymous": false,
      "inputs": [
        {
          "indexed": true,
          "internalType": "address",
          "name": "_user",
          "type": "address"
        },
        {
          "indexed": false,
          "internalType": "address",
          "name": "_tokenAddress",
          "type": "address"
        },
        {
          "indexed": false,
          "internalType": "uint256",
          "name": "_tokenId",
          "type": "uint256"
        },
        {
          "indexed": false,
          "internalType": "uint256",
          "name": "_feeAmount",
          "type": "uint256"
        }
      ],
      "name": "ClaimAfterAuction",
      "type": "event"
    },
    {
      "anonymous": false,
      "inputs": [
        {
          "indexed": true,
          "internalType": "address",
          "name": "previousOwner",
          "type": "address"
        },
        {
          "indexed": true,
          "internalType": "address",
          "name": "newOwner",
          "type": "address"
        }
      ],
      "name": "OwnershipTransferred",
      "type": "event"
    },
    {
      "anonymous": false,
      "inputs": [
        {
          "indexed": true,
          "internalType": "address",
          "name": "_user",
          "type": "address"
        },
        {
          "indexed": false,
          "internalType": "address",
          "name": "_tokenAddress",
          "type": "address"
        },
        {
          "indexed": false,
          "internalType": "uint256",
          "name": "_tokenId",
          "type": "uint256"
        },
        {
          "indexed": false,
          "internalType": "uint256",
          "name": "_feeAmount",
          "type": "uint256"
        }
      ],
      "name": "Purchase",
      "type": "event"
    },
    {
      "anonymous": false,
      "inputs": [
        {
          "indexed": true,
          "internalType": "address",
          "name": "_user",
          "type": "address"
        },
        {
          "indexed": false,
          "internalType": "address",
          "name": "_tokenAddress",
          "type": "address"
        },
        {
          "indexed": false,
          "internalType": "uint256",
          "name": "_tokenId",
          "type": "uint256"
        },
        {
          "indexed": false,
          "internalType": "uint256",
          "name": "_price",
          "type": "uint256"
        }
      ],
      "name": "Sell",
      "type": "event"
    },
    {
      "anonymous": false,
      "inputs": [
        {
          "indexed": false,
          "internalType": "uint256",
          "name": "_fee",
          "type": "uint256"
        },
        {
          "indexed": false,
          "internalType": "address",
          "name": "_to",
          "type": "address"
        }
      ],
      "name": "WithdrawFee",
      "type": "event"
    },
    {
      "inputs": [],
      "name": "ERC721_Interface",
      "outputs": [
        {
          "internalType": "bytes4",
          "name": "",
          "type": "bytes4"
        }
      ],
      "stateMutability": "view",
      "type": "function"
    },
    {
      "inputs": [],
      "name": "MAX_AUCTION_DURATION",
      "outputs": [
        {
          "internalType": "uint256",
          "name": "",
          "type": "uint256"
        }
      ],
      "stateMutability": "view",
      "type": "function"
    },
    {
      "inputs": [],
      "name": "MIN_AUCTION_DURATION",
      "outputs": [
        {
          "internalType": "uint256",
          "name": "",
          "type": "uint256"
        }
      ],
      "stateMutability": "view",
      "type": "function"
    },
    {
      "inputs": [],
      "name": "ONE_MILLION",
      "outputs": [
        {
          "internalType": "uint256",
          "name": "",
          "type": "uint256"
        }
      ],
      "stateMutability": "view",
      "type": "function"
    },
    {
      "inputs": [],
      "name": "acceptedToken",
      "outputs": [
        {
          "internalType": "contract IERC20",
          "name": "",
          "type": "address"
        }
      ],
      "stateMutability": "view",
      "type": "function"
    },
    {
      "inputs": [
        {
          "internalType": "address",
          "name": "",
          "type": "address"
        },
        {
          "internalType": "uint256",
          "name": "",
          "type": "uint256"
        }
      ],
      "name": "auctions",
      "outputs": [
        {
          "internalType": "bool",
          "name": "isListing",
          "type": "bool"
        },
        {
          "internalType": "address",
          "name": "seller",
          "type": "address"
        },
        {
          "internalType": "uint256",
          "name": "minPrice",
          "type": "uint256"
        },
        {
          "internalType": "uint256",
          "name": "startTime",
          "type": "uint256"
        },
        {
          "internalType": "uint256",
          "name": "endTime",
          "type": "uint256"
        }
      ],
      "stateMutability": "view",
      "type": "function"
    },
    {
      "inputs": [
        {
          "internalType": "address",
          "name": "",
          "type": "address"
        },
        {
          "internalType": "uint256",
          "name": "",
          "type": "uint256"
        },
        {
          "internalType": "uint256",
          "name": "",
          "type": "uint256"
        }
      ],
      "name": "biders",
      "outputs": [
        {
          "internalType": "address",
          "name": "",
          "type": "address"
        }
      ],
      "stateMutability": "view",
      "type": "function"
    },
    {
      "inputs": [
        {
          "internalType": "address",
          "name": "",
          "type": "address"
        },
        {
          "internalType": "uint256",
          "name": "",
          "type": "uint256"
        },
        {
          "internalType": "address",
          "name": "",
          "type": "address"
        }
      ],
      "name": "bids",
      "outputs": [
        {
          "internalType": "uint256",
          "name": "",
          "type": "uint256"
        }
      ],
      "stateMutability": "view",
      "type": "function"
    },
    {
      "inputs": [
        {
          "internalType": "address",
          "name": "_tokenAddress",
          "type": "address"
        },
        {
          "internalType": "uint256",
          "name": "_tokenId",
          "type": "uint256"
        }
      ],
      "name": "cancelAuction",
      "outputs": [],
      "stateMutability": "nonpayable",
      "type": "function"
    },
    {
      "inputs": [
        {
          "internalType": "address",
          "name": "_tokenAddress",
          "type": "address"
        },
        {
          "internalType": "uint256",
          "name": "_tokenId",
          "type": "uint256"
        }
      ],
      "name": "cancelListing",
      "outputs": [],
      "stateMutability": "nonpayable",
      "type": "function"
    },
    {
      "inputs": [
        {
          "internalType": "address",
          "name": "_tokenAddress",
          "type": "address"
        },
        {
          "internalType": "uint256",
          "name": "_tokenId",
          "type": "uint256"
        }
      ],
      "name": "claimAfterAuction",
      "outputs": [],
      "stateMutability": "nonpayable",
      "type": "function"
    },
    {
      "inputs": [
        {
          "internalType": "address",
          "name": "_tokenAddress",
          "type": "address"
        },
        {
          "internalType": "uint256",
          "name": "_tokenId",
          "type": "uint256"
        },
        {
          "internalType": "uint256",
          "name": "_minPrice",
          "type": "uint256"
        },
        {
          "internalType": "uint256",
          "name": "_startTime",
          "type": "uint256"
        },
        {
          "internalType": "uint256",
          "name": "_duration",
          "type": "uint256"
        }
      ],
      "name": "createAuction",
      "outputs": [],
      "stateMutability": "nonpayable",
      "type": "function"
    },
    {
      "inputs": [],
      "name": "feeBalance",
      "outputs": [
        {
          "internalType": "uint256",
          "name": "",
          "type": "uint256"
        }
      ],
      "stateMutability": "view",
      "type": "function"
    },
    {
      "inputs": [
        {
          "internalType": "address",
          "name": "_tokenAddress",
          "type": "address"
        },
        {
          "internalType": "uint256",
          "name": "_tokenId",
          "type": "uint256"
        },
        {
          "internalType": "uint256",
          "name": "_cursor",
          "type": "uint256"
        },
        {
          "internalType": "uint256",
          "name": "_size",
          "type": "uint256"
        }
      ],
      "name": "getAuctionBidsPagination",
      "outputs": [
        {
          "internalType": "address[]",
          "name": "",
          "type": "address[]"
        },
        {
          "internalType": "uint256",
          "name": "",
          "type": "uint256"
        }
      ],
      "stateMutability": "view",
      "type": "function"
    },
    {
      "inputs": [
        {
          "internalType": "address",
          "name": "_tokenAddress",
          "type": "address"
        },
        {
          "internalType": "uint256",
          "name": "_tokenId",
          "type": "uint256"
        },
        {
          "internalType": "uint256",
          "name": "_cursor",
          "type": "uint256"
        },
        {
          "internalType": "uint256",
          "name": "_size",
          "type": "uint256"
        }
      ],
      "name": "getTransactionPagination",
      "outputs": [
        {
          "components": [
            {
              "internalType": "address",
              "name": "seller",
              "type": "address"
            },
            {
              "internalType": "address",
              "name": "bider",
              "type": "address"
            },
            {
              "internalType": "uint256",
              "name": "price",
              "type": "uint256"
            },
            {
              "internalType": "uint256",
              "name": "time",
              "type": "uint256"
            }
          ],
          "internalType": "struct Marketplace.Transaction[]",
          "name": "",
          "type": "tuple[]"
        },
        {
          "internalType": "uint256",
          "name": "",
          "type": "uint256"
        }
      ],
      "stateMutability": "view",
      "type": "function"
    },
    {
      "inputs": [
        {
          "internalType": "address",
          "name": "_acceptedToken",
          "type": "address"
        }
      ],
      "name": "initialize",
      "outputs": [],
      "stateMutability": "nonpayable",
      "type": "function"
    },
    {
      "inputs": [
        {
          "internalType": "address",
          "name": "",
          "type": "address"
        },
        {
          "internalType": "uint256",
          "name": "",
          "type": "uint256"
        }
      ],
      "name": "lastBider",
      "outputs": [
        {
          "internalType": "address",
          "name": "",
          "type": "address"
        }
      ],
      "stateMutability": "view",
      "type": "function"
    },
    {
      "inputs": [
        {
          "internalType": "address",
          "name": "",
          "type": "address"
        },
        {
          "internalType": "uint256",
          "name": "",
          "type": "uint256"
        }
      ],
      "name": "offers",
      "outputs": [
        {
          "internalType": "bool",
          "name": "isListing",
          "type": "bool"
        },
        {
          "internalType": "address",
          "name": "seller",
          "type": "address"
        },
        {
          "internalType": "uint256",
          "name": "price",
          "type": "uint256"
        }
      ],
      "stateMutability": "view",
      "type": "function"
    },
    {
      "inputs": [
        {
          "internalType": "address",
          "name": "",
          "type": "address"
        },
        {
          "internalType": "address",
          "name": "",
          "type": "address"
        },
        {
          "internalType": "uint256",
          "name": "",
          "type": "uint256"
        },
        {
          "internalType": "bytes",
          "name": "",
          "type": "bytes"
        }
      ],
      "name": "onERC721Received",
      "outputs": [
        {
          "internalType": "bytes4",
          "name": "",
          "type": "bytes4"
        }
      ],
      "stateMutability": "nonpayable",
      "type": "function"
    },
    {
      "inputs": [],
      "name": "owner",
      "outputs": [
        {
          "internalType": "address",
          "name": "",
          "type": "address"
        }
      ],
      "stateMutability": "view",
      "type": "function"
    },
    {
      "inputs": [
        {
          "internalType": "address",
          "name": "_tokenAddress",
          "type": "address"
        },
        {
          "internalType": "uint256",
          "name": "_tokenId",
          "type": "uint256"
        },
        {
          "internalType": "uint256",
          "name": "_price",
          "type": "uint256"
        }
      ],
      "name": "placeBid",
      "outputs": [],
      "stateMutability": "nonpayable",
      "type": "function"
    },
    {
      "inputs": [
        {
          "internalType": "address",
          "name": "_tokenAddress",
          "type": "address"
        },
        {
          "internalType": "uint256",
          "name": "_tokenId",
          "type": "uint256"
        }
      ],
      "name": "purchase",
      "outputs": [],
      "stateMutability": "nonpayable",
      "type": "function"
    },
    {
      "inputs": [],
      "name": "renounceOwnership",
      "outputs": [],
      "stateMutability": "nonpayable",
      "type": "function"
    },
    {
      "inputs": [
        {
          "internalType": "address",
          "name": "_tokenAddress",
          "type": "address"
        },
        {
          "internalType": "uint256",
          "name": "_tokenId",
          "type": "uint256"
        },
        {
          "internalType": "uint256",
          "name": "_price",
          "type": "uint256"
        }
      ],
      "name": "sell",
      "outputs": [],
      "stateMutability": "nonpayable",
      "type": "function"
    },
    {
      "inputs": [
        {
          "internalType": "uint256",
          "name": "_transactionFee",
          "type": "uint256"
        }
      ],
      "name": "setTransactionFee",
      "outputs": [],
      "stateMutability": "nonpayable",
      "type": "function"
    },
    {
      "inputs": [],
      "name": "transactionFee",
      "outputs": [
        {
          "internalType": "uint256",
          "name": "",
          "type": "uint256"
        }
      ],
      "stateMutability": "view",
      "type": "function"
    },
    {
      "inputs": [
        {
          "internalType": "address",
          "name": "",
          "type": "address"
        },
        {
          "internalType": "uint256",
          "name": "",
          "type": "uint256"
        },
        {
          "internalType": "uint256",
          "name": "",
          "type": "uint256"
        }
      ],
      "name": "transactions",
      "outputs": [
        {
          "internalType": "address",
          "name": "seller",
          "type": "address"
        },
        {
          "internalType": "address",
          "name": "bider",
          "type": "address"
        },
        {
          "internalType": "uint256",
          "name": "price",
          "type": "uint256"
        },
        {
          "internalType": "uint256",
          "name": "time",
          "type": "uint256"
        }
      ],
      "stateMutability": "view",
      "type": "function"
    },
    {
      "inputs": [
        {
          "internalType": "address",
          "name": "newOwner",
          "type": "address"
        }
      ],
      "name": "transferOwnership",
      "outputs": [],
      "stateMutability": "nonpayable",
      "type": "function"
    },
    {
      "inputs": [
        {
          "internalType": "address",
          "name": "_to",
          "type": "address"
        }
      ],
      "name": "withdrawFee",
      "outputs": [],
      "stateMutability": "nonpayable",
      "type": "function"
    }
  ],
  "transactionHash": "0x488da1340bcacf2b5814650328c734d6c7d1a470b54792272203d1c268b705f9",
  "args": [],
  "solcInputHash": "5ff1e7ba614fcd48f1660e9ffe71575f",
  "bytecode": "0x608060405234801561001057600080fd5b5061001a3361001f565b61006f565b600080546001600160a01b038381166001600160a01b0319831681178455604051919092169283917f8be0079c531659141344cd1fd0a4f28419497f9722a3daafe3b4186f6b6457e09190a35050565b612c18806200007f6000396000f3fe608060405234801561001057600080fd5b50600436106101cf5760003560e01c80638da5cb5b11610104578063c2f50a7a116100a2578063d60b47ee11610071578063d60b47ee146104c9578063dd768922146104fd578063f1d054031461052e578063f2fde38b1461054157600080fd5b8063c2f50a7a1461046c578063c4d66de814610474578063c8e4ef5314610487578063d3603e43146104a857600080fd5b80639869b736116100de5780639869b736146103de5780639ed3edf0146103e8578063aa1a8411146103f1578063b2ddee061461045957600080fd5b80638da5cb5b146103a75780638de93222146103b8578063961c9ae4146103cb57600080fd5b80634440199f1161017157806360b71d4e1161014b57806360b71d4e146103705780636a27246214610379578063715018a61461038c578063859b97fe1461039457600080fd5b80634440199f1461028457806344f91c1e146102c2578063451c3d801461034557600080fd5b80631ac3ddeb116101ad5780631ac3ddeb146102385780632b4c32be1461024b57806337ae98b6146102595780633fb351781461026c57600080fd5b806304717aca146101d4578063096a8ab7146101e9578063150b7a02146101fc575b600080fd5b6101e76101e23660046126dc565b610554565b005b6101e76101f736600461270f565b61093c565b61021a61020a36600461273e565b630a85bd0160e11b949350505050565b6040516001600160e01b031990911681526020015b60405180910390f35b6101e761024636600461281a565b610a09565b61021a6380ac58cd60e01b81565b6101e7610267366004612835565b610b3d565b61027662eff10081565b60405190815260200161022f565b6102976102923660046126dc565b610ec6565b604080516001600160a01b03958616815294909316602085015291830152606082015260800161022f565b6103136102d0366004612835565b60026020818152600093845260408085209091529183529120805460018201549282015460039092015460ff8216936101009092046001600160a01b0316929085565b6040805195151586526001600160a01b039094166020860152928401919091526060830152608082015260a00161022f565b600754610358906001600160a01b031681565b6040516001600160a01b03909116815260200161022f565b61027660095481565b6101e76103873660046126dc565b610f27565b6101e7611108565b6101e76103a2366004612835565b61113e565b6000546001600160a01b0316610358565b6101e76103c6366004612835565b6113b2565b6101e76103d936600461285f565b61169d565b610276620f424081565b61027660085481565b6104346103ff366004612835565b60016020818152600093845260408085209091529183529120805491015460ff82169161010090046001600160a01b03169083565b6040805193151584526001600160a01b0390921660208401529082015260600161022f565b6101e7610467366004612835565b6119dc565b610276603c81565b6101e761048236600461281a565b611ba8565b61049a6104953660046128a1565b611cd3565b60405161022f9291906128da565b6104bb6104b63660046128a1565b611e93565b60405161022f929190612950565b6103586104d7366004612835565b60046020908152600092835260408084209091529082529020546001600160a01b031681565b61027661050b3660046129a1565b600360209081526000938452604080852082529284528284209052825290205481565b61035861053c3660046126dc565b611fea565b6101e761054f36600461281a565b61202f565b6001600160a01b0380841660008181526002602081815260408084208885528252808420815160a081018352815460ff8116151582526101009004881681850152600182015481840152938101546060850152600390810154608085015285855260048352818520898652835281852054958552825280842088855282528084209490951680845293905292902054825161060a5760405162461bcd60e51b8152600401610601906129dd565b60405180910390fd5b60208301516001600160a01b031633141561068d5760405162461bcd60e51b815260206004820152603b60248201527f5468652061756374696f6e2073686f756c64206861766520616e2073656c6c6560448201527f7220646966666572656e742066726f6d207468652073656e64657200000000006064820152608401610601565b4283606001511080156106a35750826080015142105b6106e85760405162461bcd60e51b8152602060048201526016602482015275105d58dd1a5bdb881b9bdd081858dd1a5d99481e595d60521b6044820152606401610601565b82604001518410156107505760405162461bcd60e51b815260206004820152602b60248201527f5265717569726564206e657720626964207072696365206c617267652074686160448201526a6e206d696e20707269636560a81b6064820152608401610601565b8084116107b85760405162461bcd60e51b815260206004820152603060248201527f5265717569726564206e657720626964207072696365206c617267652074686160448201526f6e206c6173742062696420707269636560801b6064820152608401610601565b6001600160a01b0386811660008181526003602081815260408084208b85528252808420338086529083528185208b905585855260048084528286208d8752845282862080546001600160a01b03199081168417909155878752600585528387208e88528552838720805460018181018355918952868920018054831685179055978752600685528387208e8852855283872084516080810186528d8701518b1681528c8b168188019081529581018c815242606083019081528354808d018555938b529790992090519190930290920180548216928a16929092178255925196810180549093169688169690961790915592516002850155519201919091556007546108c892169030876120ca565b6001600160a01b038216156108ef576007546108ef906001600160a01b03163084846120ca565b336001600160a01b03167fdd49bbb40d47a514dddcd458e9718364143bc24a0cca58439ee6f4f45e4ce10d87878760405161092c93929190612a14565b60405180910390a2505050505050565b6000546001600160a01b031633146109665760405162461bcd60e51b815260040161060190612a35565b620f424081106109ce5760405162461bcd60e51b815260206004820152602d60248201527f546865206f776e6572206375742073686f756c64206265206265747765656e2060448201526c3020616e64203939392c39393960981b6064820152608401610601565b60088190556040518181527f672ac54f73ff220a211d5e0a6cd5d144497cdb1278a44175d84274e0dc857e2a9060200160405180910390a150565b6000546001600160a01b03163314610a335760405162461bcd60e51b815260040161060190612a35565b6009546001600160a01b038216610a7e5760405162461bcd60e51b815260206004820152600f60248201526e496e76616c6964206164647265737360881b6044820152606401610601565b60008111610adc5760405162461bcd60e51b815260206004820152602560248201527f5265717569726564206665652062616c616e6365206c6172676572207468616e604482015264207a65726f60d81b6064820152608401610601565b6000600955600754610af8906001600160a01b03168383612128565b604080518281526001600160a01b03841660208201527f14c59f662c75de843f5e393a49e77d8314a5d804c6859fb3e8827501a6ff8418910160405180910390a15050565b6001600160a01b0380831660008181526002602081815260408084208785528252808420815160a081018352815460ff811615158252610100900488168185019081526001830154828501529482015460608201526003909101546080820152948452600482528084208785529091528220549051835193949190911692909190610bda5760405162461bcd60e51b8152600401610601906129dd565b42846080015110610c2d5760405162461bcd60e51b815260206004820152601760248201527f41756374696f6e206973206e6f74206f766572207965740000000000000000006044820152606401610601565b336001600160a01b0383161480610c4c5750336001600160a01b038416145b610ca45760405162461bcd60e51b815260206004820152602360248201527f4f6e6c792073656c6c6572206f72206c6173742062696465722063616e20636c60448201526261696d60e81b6064820152608401610601565b6001600160a01b038316610d7357336001600160a01b03831614610d025760405162461bcd60e51b81526020600482015260156024820152744f6e6c792073656c6c65722063616e20636c61696d60581b6044820152606401610601565b610d0c868661215d565b604051632142170760e11b81526001600160a01b038716906342842e0e90610d3c90309086908a90600401612a6a565b600060405180830381600087803b158015610d5657600080fd5b505af1158015610d6a573d6000803e3d6000fd5b50505050610e89565b6001600160a01b03808716600090815260036020908152604080832089845282528083209387168352929052205460085415610e0457610dcb620f4240610dc5600854846122de90919063ffffffff16565b906122f1565b600954909250610ddb90836122fd565b600955610dff83610dec8385612309565b6007546001600160a01b03169190612128565b610e1b565b600754610e1b906001600160a01b03168483612128565b610e25878761215d565b604051632142170760e11b81526001600160a01b038816906342842e0e90610e5590309088908b90600401612a6a565b600060405180830381600087803b158015610e6f57600080fd5b505af1158015610e83573d6000803e3d6000fd5b50505050505b336001600160a01b03167f3f63d70eb30fbcf9337ea07eeca60cf642755540949c674691947ad0fcc6922187878460405161092c93929190612a14565b60066020528260005260406000206020528160005260406000208181548110610eee57600080fd5b600091825260209091206004909102018054600182015460028301546003909301546001600160a01b0392831696509116935090915084565b610f3083612315565b6001600160a01b038316600090815260016020908152604080832085845290915290205460ff1615610f9b5760405162461bcd60e51b81526020600482015260146024820152734f6666657220616c72656164792065786973747360601b6044820152606401610601565b60008111610feb5760405162461bcd60e51b815260206004820152601f60248201527f5265717569726564207072696365206c6172676572207468616e207a65726f006044820152606401610601565b6040805160608101825260018082523360208084018281528486018781526001600160a01b038a811660008181528786528981208c8252909552938890209651875493516001600160a81b0319909416901515610100600160a81b0319161761010093909116929092029190911785555193909201929092559151632142170760e11b81526342842e0e916110869130908790600401612a6a565b600060405180830381600087803b1580156110a057600080fd5b505af11580156110b4573d6000803e3d6000fd5b505050506110bf3390565b6001600160a01b03167fa082022e93cfcd9f1da5f9236718053910f7e840da080c789c7845698dc032ff8484846040516110fb93929190612a14565b60405180910390a2505050565b6000546001600160a01b031633146111325760405162461bcd60e51b815260040161060190612a35565b61113c60006123f4565b565b6001600160a01b0380831660008181526002602081815260408084208785528252808420815160a081018352815460ff8116151582526101009004881681850152600182015481840152938101546060850152600301546080840152938352600481528383208684529052919020548151919216906111cf5760405162461bcd60e51b8152600401610601906129dd565b60208201516001600160a01b0316331461122b5760405162461bcd60e51b815260206004820152601e60248201527f4f6e6c792073656c6c65722063616e2063616e63656c2061756374696f6e00006044820152606401610601565b428260800151116112915760405162461bcd60e51b815260206004820152602a60248201527f43616e206e6f742063616e63656c2061756374696f6e207768656e20617563746044820152691a5bdb8818db1bdcd95960b21b6064820152608401610601565b6001600160a01b038116156112ed576001600160a01b03808516600090815260036020908152604080832087845282528083209385168352929052205480156112eb576007546112eb906001600160a01b03168383612128565b505b6112f7848461215d565b6020820151604051632142170760e11b81526001600160a01b038616916342842e0e9161132a9130918890600401612a6a565b600060405180830381600087803b15801561134457600080fd5b505af1158015611358573d6000803e3d6000fd5b505050506113633390565b604080516001600160a01b0387811682526020820187905292909216917f28019131c3bf8b8285eda90929175f54578d6aab27ab21e34665b40770aa4b3191015b60405180910390a250505050565b6001600160a01b0380831660009081526001602081815260408084208685528252928390208351606081018552815460ff811615158083526101009091049096169281019290925290910154918101919091529061144b5760405162461bcd60e51b81526020600482015260166024820152754f66666572206973206e6f7420617661696c61626c6560501b6044820152606401610601565b60208101516001600160a01b03163314156114a85760405162461bcd60e51b815260206004820152601760248201527f53656c6c65722063616e206e6f742070757263686173650000000000000000006044820152606401610601565b6001600160a01b0383811660008181526006602090815260408083208784528252808320815160808101835287840151871681523381850181815289850180518487019081524260608601908152865460018082018955978b52898b20965160049091029096018054968d166001600160a01b031997881617815593518488018054918e169190971617909555516002830155925160039091015595855281845282852089865290935290832080546001600160a81b031916815501919091555160075461157a9316919030906120ca565b600854600090156115d6576115a5620f4240610dc560085485604001516122de90919063ffffffff16565b6009549091506115b590826122fd565b600955602082015160408301516115d19190610dec9084612309565b6115f8565b602082015160408301516007546115f8926001600160a01b0390911691612128565b604051632142170760e11b81526001600160a01b038516906342842e0e9061162890309033908890600401612a6a565b600060405180830381600087803b15801561164257600080fd5b505af1158015611656573d6000803e3d6000fd5b505050506116613390565b6001600160a01b03167f46661dab58311a6838247afecbee792192b4f27fc8b3e7168c66bc55ec2e404e8585846040516113a493929190612a14565b6116a685612315565b4282101561170b5760405162461bcd60e51b815260206004820152602c60248201527f52657175697265642073746172742074696d65206c6172676572207468616e2060448201526b63757272656e742074696d6560a01b6064820152608401610601565b603c8110156117825760405162461bcd60e51b815260206004820152603d60248201527f5468652061756374696f6e2073686f756c64206265206c617374206c6f6e676560448201527f72207468616e2061206d696e2061756374696f6e206475726174696f6e0000006064820152608401610601565b62eff1008111156117fb5760405162461bcd60e51b815260206004820152603960248201527f5468652061756374696f6e2063616e206e6f74206c617374206c6f6e6765722060448201527f7468616e206d61782061756374696f6e206475726174696f6e000000000000006064820152608401610601565b6001600160a01b038516600090815260026020908152604080832087845290915290205460ff16156118685760405162461bcd60e51b815260206004820152601660248201527541756374696f6e20616c72656164792065786973747360501b6044820152606401610601565b600061187483836122fd565b90506040518060a001604052806001151581526020016118913390565b6001600160a01b0390811682526020808301889052604080840188905260609384018690528a8316600081815260028085528382208d835285529083902087518154958901516001600160a81b0319909616901515610100600160a81b03191617610100959096169490940294909417835585820151600184015593850151928201929092556080909301516003909301929092559051632142170760e11b81526342842e0e9061194a90339030908a90600401612a6a565b600060405180830381600087803b15801561196457600080fd5b505af1158015611978573d6000803e3d6000fd5b505050506119833390565b604080516001600160a01b0389811682526020820189905291810187905260608101869052608081018490529116907f3b7b4c5af27f2d215ab04ff752eb66d4d2500c6584590ed58288a4275196886d9060a00161092c565b6001600160a01b0380831660009081526001602081815260408084208685528252928390208351606081018552815460ff8116151580835261010090910490961692810192909252909101549181019190915290611a755760405162461bcd60e51b81526020600482015260166024820152754f66666572206973206e6f7420617661696c61626c6560501b6044820152606401610601565b60208101516001600160a01b03163314611ad15760405162461bcd60e51b815260206004820152601c60248201527f4f6e6c792073656c6c65722063616e2063616e63656c206f66666572000000006044820152606401610601565b6001600160a01b0383166000818152600160208181526040808420878552909152822080546001600160a81b031916815501556342842e0e3033856040518463ffffffff1660e01b8152600401611b2a93929190612a6a565b600060405180830381600087803b158015611b4457600080fd5b505af1158015611b58573d6000803e3d6000fd5b50505050611b633390565b604080516001600160a01b0386811682526020820186905292909216917f061e64e10e5e57615a6fe38b48c81926f6999a2f5304d3e5e6b0d3cfac4865a591016110fb565b600054600160a81b900460ff1680611bca5750600054600160a01b900460ff16155b611c2d5760405162461bcd60e51b815260206004820152602e60248201527f496e697469616c697a61626c653a20636f6e747261637420697320616c72656160448201526d191e481a5b9a5d1a585b1a5e995960921b6064820152608401610601565b600054600160a81b900460ff16158015611c57576000805461ffff60a01b191661010160a01b1790555b6001600160a01b038216611ca05760405162461bcd60e51b815260206004820152601060248201526f496e76616c696420616464726573732160801b6044820152606401610601565b600780546001600160a01b0319166001600160a01b0384161790558015611ccf576000805460ff60a81b191690555b5050565b6001600160a01b0384166000908152600660209081526040808320868452909152812054606091908390611d08908690612aa4565b811115611d41576001600160a01b0387166000908152600660209081526040808320898452909152902054611d3e908690612aa4565b90505b60008167ffffffffffffffff811115611d5c57611d5c612728565b604051908082528060200260200182016040528015611dae57816020015b604080516080810182526000808252602080830182905292820181905260608201528252600019909201910181611d7a5790505b50905060005b82811015611e78576001600160a01b03891660009081526006602090815260408083208b84529091529020611de98289612abb565b81548110611df957611df9612ad3565b600091825260209182902060408051608081018252600490930290910180546001600160a01b0390811684526001820154169383019390935260028301549082015260039091015460608201528251839083908110611e5a57611e5a612ad3565b60200260200101819052508080611e7090612ae9565b915050611db4565b5080611e848388612abb565b93509350505094509492505050565b6001600160a01b0384166000908152600560209081526040808320868452909152812054606091908390611ec8908690612aa4565b811115611f01576001600160a01b0387166000908152600560209081526040808320898452909152902054611efe908690612aa4565b90505b60008167ffffffffffffffff811115611f1c57611f1c612728565b604051908082528060200260200182016040528015611f45578160200160208202803683370190505b50905060005b82811015611e78576001600160a01b03891660009081526005602090815260408083208b84529091529020611f808289612abb565b81548110611f9057611f90612ad3565b9060005260206000200160009054906101000a90046001600160a01b0316828281518110611fc057611fc0612ad3565b6001600160a01b039092166020928302919091019091015280611fe281612ae9565b915050611f4b565b6005602052826000526040600020602052816000526040600020818154811061201257600080fd5b6000918252602090912001546001600160a01b0316925083915050565b6000546001600160a01b031633146120595760405162461bcd60e51b815260040161060190612a35565b6001600160a01b0381166120be5760405162461bcd60e51b815260206004820152602660248201527f4f776e61626c653a206e6577206f776e657220697320746865207a65726f206160448201526564647265737360d01b6064820152608401610601565b6120c7816123f4565b50565b612122846323b872dd60e01b8585856040516024016120eb93929190612a6a565b60408051601f198184030181529190526020810180516001600160e01b03166001600160e01b031990931692909217909152612444565b50505050565b6040516001600160a01b03831660248201526044810182905261215890849063a9059cbb60e01b906064016120eb565b505050565b6001600160a01b03821660009081526005602090815260408083208484528252808320805482518185028101850190935280835291929091908301828280156121cf57602002820191906000526020600020905b81546001600160a01b031681526001909101906020018083116121b1575b5050505050905060005b815181101561225b576001600160a01b03841660009081526003602090815260408083208684529091528120835190919084908490811061221c5761221c612ad3565b60200260200101516001600160a01b03166001600160a01b0316815260200190815260200160002060009055808061225390612ae9565b9150506121d9565b506001600160a01b0383166000818152600260208181526040808420878552825280842080546001600160a81b031916815560018101859055928301849055600390920183905583835260048152818320868452815281832080546001600160a01b0319169055928252600583528082208583529092529081206121589161268e565b60006122ea8284612b04565b9392505050565b60006122ea8284612b23565b60006122ea8284612abb565b60006122ea8284612aa4565b6040516301ffc9a760e01b81526380ac58cd60e01b600482015281906001600160a01b038216906301ffc9a79060240160206040518083038186803b15801561235d57600080fd5b505afa158015612371573d6000803e3d6000fd5b505050506040513d601f19601f820116820180604052508101906123959190612b45565b611ccf5760405162461bcd60e51b815260206004820152602a60248201527f546f6b656e2068617320616e20696e76616c69642045524337323120696d706c60448201526932b6b2b73a30ba34b7b760b11b6064820152608401610601565b600080546001600160a01b038381166001600160a01b0319831681178455604051919092169283917f8be0079c531659141344cd1fd0a4f28419497f9722a3daafe3b4186f6b6457e09190a35050565b6000612499826040518060400160405280602081526020017f5361666545524332303a206c6f772d6c6576656c2063616c6c206661696c6564815250856001600160a01b03166125169092919063ffffffff16565b80519091501561215857808060200190518101906124b79190612b45565b6121585760405162461bcd60e51b815260206004820152602a60248201527f5361666545524332303a204552433230206f7065726174696f6e20646964206e6044820152691bdd081cdd58d8d9595960b21b6064820152608401610601565b6060612525848460008561252d565b949350505050565b60608247101561258e5760405162461bcd60e51b815260206004820152602660248201527f416464726573733a20696e73756666696369656e742062616c616e636520666f6044820152651c8818d85b1b60d21b6064820152608401610601565b843b6125dc5760405162461bcd60e51b815260206004820152601d60248201527f416464726573733a2063616c6c20746f206e6f6e2d636f6e74726163740000006044820152606401610601565b600080866001600160a01b031685876040516125f89190612b93565b60006040518083038185875af1925050503d8060008114612635576040519150601f19603f3d011682016040523d82523d6000602084013e61263a565b606091505b509150915061264a828286612655565b979650505050505050565b606083156126645750816122ea565b8251156126745782518084602001fd5b8160405162461bcd60e51b81526004016106019190612baf565b50805460008255906000526020600020908101906120c791905b808211156126bc57600081556001016126a8565b5090565b80356001600160a01b03811681146126d757600080fd5b919050565b6000806000606084860312156126f157600080fd5b6126fa846126c0565b95602085013595506040909401359392505050565b60006020828403121561272157600080fd5b5035919050565b634e487b7160e01b600052604160045260246000fd5b6000806000806080858703121561275457600080fd5b61275d856126c0565b935061276b602086016126c0565b925060408501359150606085013567ffffffffffffffff8082111561278f57600080fd5b818701915087601f8301126127a357600080fd5b8135818111156127b5576127b5612728565b604051601f8201601f19908116603f011681019083821181831017156127dd576127dd612728565b816040528281528a60208487010111156127f657600080fd5b82602086016020830137600060208483010152809550505050505092959194509250565b60006020828403121561282c57600080fd5b6122ea826126c0565b6000806040838503121561284857600080fd5b612851836126c0565b946020939093013593505050565b600080600080600060a0868803121561287757600080fd5b612880866126c0565b97602087013597506040870135966060810135965060800135945092505050565b600080600080608085870312156128b757600080fd5b6128c0856126c0565b966020860135965060408601359560600135945092505050565b6040808252835182820181905260009190606090818501906020808901865b8381101561293c57815180516001600160a01b039081168752848201511684870152878101518887015286015186860152608090940193908201906001016128f9565b505095909501959095525092949350505050565b604080825283519082018190526000906020906060840190828701845b828110156129925781516001600160a01b03168452928401929084019060010161296d565b50505092019290925292915050565b6000806000606084860312156129b657600080fd5b6129bf846126c0565b9250602084013591506129d4604085016126c0565b90509250925092565b60208082526018908201527f41756374696f6e206973206e6f7420617661696c61626c650000000000000000604082015260600190565b6001600160a01b039390931683526020830191909152604082015260600190565b6020808252818101527f4f776e61626c653a2063616c6c6572206973206e6f7420746865206f776e6572604082015260600190565b6001600160a01b039384168152919092166020820152604081019190915260600190565b634e487b7160e01b600052601160045260246000fd5b600082821015612ab657612ab6612a8e565b500390565b60008219821115612ace57612ace612a8e565b500190565b634e487b7160e01b600052603260045260246000fd5b6000600019821415612afd57612afd612a8e565b5060010190565b6000816000190483118215151615612b1e57612b1e612a8e565b500290565b600082612b4057634e487b7160e01b600052601260045260246000fd5b500490565b600060208284031215612b5757600080fd5b815180151581146122ea57600080fd5b60005b83811015612b82578181015183820152602001612b6a565b838111156121225750506000910152565b60008251612ba5818460208701612b67565b9190910192915050565b6020815260008251806020840152612bce816040850160208701612b67565b601f01601f1916919091016040019291505056fea264697066735822122083412cbabc384c18e422e19f477fe6522bf18e8f83c59686aabdaf3fc81c3ddc64736f6c63430008090033",
  "devdoc": {
    "kind": "dev",
    "methods": {
      "cancelAuction(address,uint256)": {
        "details": "Cancel auction with ERC721 token",
        "params": {
          "_tokenAddress": "- address of the ERC721 token",
          "_tokenId": "- uint256 of the token id"
        }
      },
      "cancelListing(address,uint256)": {
        "details": "Cancel listing ERC721 token in store.",
        "params": {
          "_tokenAddress": "- address of the ERC721 token",
          "_tokenId": "- uint256 of the token id"
        }
      },
      "claimAfterAuction(address,uint256)": {
        "details": "Claim nft and token before auction ended",
        "params": {
          "_tokenAddress": "- address of the ERC721 token",
          "_tokenId": "- uint256 of the token id"
        }
      },
      "createAuction(address,uint256,uint256,uint256,uint256)": {
        "details": "Create auction with ERC721 token",
        "params": {
          "_duration": "- uint256 of the duration in seconds for the bid",
          "_minPrice": "- uint256 of the price for the auction",
          "_startTime": "- uint256 of the start time",
          "_tokenAddress": "- address of the ERC721 token",
          "_tokenId": "- uint256 of the token id"
        }
      },
      "owner()": {
        "details": "Returns the address of the current owner."
      },
      "placeBid(address,uint256,uint256)": {
        "details": "Place a bid for an ERC721 token",
        "params": {
          "_price": "- uint256 of the price for the bid",
          "_tokenAddress": "- address of the ERC721 token",
          "_tokenId": "- uint256 of the token id"
        }
      },
      "purchase(address,uint256)": {
        "details": "Purchase with accepted token to earn ERC721 token",
        "params": {
          "_tokenAddress": "- address of the ERC721 token",
          "_tokenId": "- uint256 of the token id"
        }
      },
      "renounceOwnership()": {
        "details": "Leaves the contract without owner. It will not be possible to call `onlyOwner` functions anymore. Can only be called by the current owner. NOTE: Renouncing ownership will leave the contract without an owner, thereby removing any functionality that is only available to the owner."
      },
      "sell(address,uint256,uint256)": {
        "details": "Sell ERC721 token in store.",
        "params": {
          "_price": "- uint256 of the price for the bid",
          "_tokenAddress": "- address of the ERC721 token",
          "_tokenId": "- uint256 of the token id"
        }
      },
      "setTransactionFee(uint256)": {
        "details": "Sets the share cut for the owner of the contract that's charged to the seller on a successful sale",
        "params": {
          "_transactionFee": "- from 0 to 999,999"
        }
      },
      "transferOwnership(address)": {
        "details": "Transfers ownership of the contract to a new account (`newOwner`). Can only be called by the current owner."
      },
      "withdrawFee(address)": {
        "details": "Withdraw fee in contract",
        "params": {
          "_to": "- receiver"
        }
      }
    },
    "version": 1
  },
  "userdoc": {
    "kind": "user",
    "methods": {
      "acceptedToken()": {
        "notice": "coin to be used to trade or bids"
      },
      "auctions(address,uint256)": {
        "notice": "token address => token id => auction info"
      },
      "biders(address,uint256,uint256)": {
        "notice": "token address => token id => list bider"
      },
      "bids(address,uint256,address)": {
        "notice": "token address => token id => bider => amount"
      },
      "feeBalance()": {
        "notice": "fee balance"
      },
      "lastBider(address,uint256)": {
        "notice": "token address => token id => last bider"
      },
      "offers(address,uint256)": {
        "notice": "token address => token id => offer info"
      },
      "onERC721Received(address,address,uint256,bytes)": {
        "notice": "Always returns `IERC721Receiver.onERC721Received.selector`."
      },
      "transactionFee()": {
        "notice": "transaction fee"
      },
      "transactions(address,uint256,uint256)": {
        "notice": "token address => token id => transaction history"
      }
    },
    "version": 1
  },
  "storageLayout": {
    "storage": [
      {
        "astId": 7,
        "contract": "contracts/Marketplace.sol:Marketplace",
        "label": "_owner",
        "offset": 0,
        "slot": "0",
        "type": "t_address"
      },
      {
        "astId": 109,
        "contract": "contracts/Marketplace.sol:Marketplace",
        "label": "_initialized",
        "offset": 20,
        "slot": "0",
        "type": "t_bool"
      },
      {
        "astId": 112,
        "contract": "contracts/Marketplace.sol:Marketplace",
        "label": "_initializing",
        "offset": 21,
        "slot": "0",
        "type": "t_bool"
      },
      {
        "astId": 2941,
        "contract": "contracts/Marketplace.sol:Marketplace",
        "label": "offers",
        "offset": 0,
        "slot": "1",
        "type": "t_mapping(t_address,t_mapping(t_uint256,t_struct(Offer)2913_storage))"
      },
      {
        "astId": 2949,
        "contract": "contracts/Marketplace.sol:Marketplace",
        "label": "auctions",
        "offset": 0,
        "slot": "2",
        "type": "t_mapping(t_address,t_mapping(t_uint256,t_struct(Auction)2924_storage))"
      },
      {
        "astId": 2958,
        "contract": "contracts/Marketplace.sol:Marketplace",
        "label": "bids",
        "offset": 0,
        "slot": "3",
        "type": "t_mapping(t_address,t_mapping(t_uint256,t_mapping(t_address,t_uint256)))"
      },
      {
        "astId": 2965,
        "contract": "contracts/Marketplace.sol:Marketplace",
        "label": "lastBider",
        "offset": 0,
        "slot": "4",
        "type": "t_mapping(t_address,t_mapping(t_uint256,t_address))"
      },
      {
        "astId": 2973,
        "contract": "contracts/Marketplace.sol:Marketplace",
        "label": "biders",
        "offset": 0,
        "slot": "5",
        "type": "t_mapping(t_address,t_mapping(t_uint256,t_array(t_address)dyn_storage))"
      },
      {
        "astId": 2982,
        "contract": "contracts/Marketplace.sol:Marketplace",
        "label": "transactions",
        "offset": 0,
        "slot": "6",
        "type": "t_mapping(t_address,t_mapping(t_uint256,t_array(t_struct(Transaction)2933_storage)dyn_storage))"
      },
      {
        "astId": 2986,
        "contract": "contracts/Marketplace.sol:Marketplace",
        "label": "acceptedToken",
        "offset": 0,
        "slot": "7",
        "type": "t_contract(IERC20)773"
      },
      {
        "astId": 2989,
        "contract": "contracts/Marketplace.sol:Marketplace",
        "label": "transactionFee",
        "offset": 0,
        "slot": "8",
        "type": "t_uint256"
      },
      {
        "astId": 2992,
        "contract": "contracts/Marketplace.sol:Marketplace",
        "label": "feeBalance",
        "offset": 0,
        "slot": "9",
        "type": "t_uint256"
      }
    ],
    "types": {
      "t_address": {
        "encoding": "inplace",
        "label": "address",
        "numberOfBytes": "20"
      },
      "t_array(t_address)dyn_storage": {
        "base": "t_address",
        "encoding": "dynamic_array",
        "label": "address[]",
        "numberOfBytes": "32"
      },
      "t_array(t_struct(Transaction)2933_storage)dyn_storage": {
        "base": "t_struct(Transaction)2933_storage",
        "encoding": "dynamic_array",
        "label": "struct Marketplace.Transaction[]",
        "numberOfBytes": "32"
      },
      "t_bool": {
        "encoding": "inplace",
        "label": "bool",
        "numberOfBytes": "1"
      },
      "t_contract(IERC20)773": {
        "encoding": "inplace",
        "label": "contract IERC20",
        "numberOfBytes": "20"
      },
      "t_mapping(t_address,t_mapping(t_uint256,t_address))": {
        "encoding": "mapping",
        "key": "t_address",
        "label": "mapping(address => mapping(uint256 => address))",
        "numberOfBytes": "32",
        "value": "t_mapping(t_uint256,t_address)"
      },
      "t_mapping(t_address,t_mapping(t_uint256,t_array(t_address)dyn_storage))": {
        "encoding": "mapping",
        "key": "t_address",
        "label": "mapping(address => mapping(uint256 => address[]))",
        "numberOfBytes": "32",
        "value": "t_mapping(t_uint256,t_array(t_address)dyn_storage)"
      },
      "t_mapping(t_address,t_mapping(t_uint256,t_array(t_struct(Transaction)2933_storage)dyn_storage))": {
        "encoding": "mapping",
        "key": "t_address",
        "label": "mapping(address => mapping(uint256 => struct Marketplace.Transaction[]))",
        "numberOfBytes": "32",
        "value": "t_mapping(t_uint256,t_array(t_struct(Transaction)2933_storage)dyn_storage)"
      },
      "t_mapping(t_address,t_mapping(t_uint256,t_mapping(t_address,t_uint256)))": {
        "encoding": "mapping",
        "key": "t_address",
        "label": "mapping(address => mapping(uint256 => mapping(address => uint256)))",
        "numberOfBytes": "32",
        "value": "t_mapping(t_uint256,t_mapping(t_address,t_uint256))"
      },
      "t_mapping(t_address,t_mapping(t_uint256,t_struct(Auction)2924_storage))": {
        "encoding": "mapping",
        "key": "t_address",
        "label": "mapping(address => mapping(uint256 => struct Marketplace.Auction))",
        "numberOfBytes": "32",
        "value": "t_mapping(t_uint256,t_struct(Auction)2924_storage)"
      },
      "t_mapping(t_address,t_mapping(t_uint256,t_struct(Offer)2913_storage))": {
        "encoding": "mapping",
        "key": "t_address",
        "label": "mapping(address => mapping(uint256 => struct Marketplace.Offer))",
        "numberOfBytes": "32",
        "value": "t_mapping(t_uint256,t_struct(Offer)2913_storage)"
      },
      "t_mapping(t_address,t_uint256)": {
        "encoding": "mapping",
        "key": "t_address",
        "label": "mapping(address => uint256)",
        "numberOfBytes": "32",
        "value": "t_uint256"
      },
      "t_mapping(t_uint256,t_address)": {
        "encoding": "mapping",
        "key": "t_uint256",
        "label": "mapping(uint256 => address)",
        "numberOfBytes": "32",
        "value": "t_address"
      },
      "t_mapping(t_uint256,t_array(t_address)dyn_storage)": {
        "encoding": "mapping",
        "key": "t_uint256",
        "label": "mapping(uint256 => address[])",
        "numberOfBytes": "32",
        "value": "t_array(t_address)dyn_storage"
      },
      "t_mapping(t_uint256,t_array(t_struct(Transaction)2933_storage)dyn_storage)": {
        "encoding": "mapping",
        "key": "t_uint256",
        "label": "mapping(uint256 => struct Marketplace.Transaction[])",
        "numberOfBytes": "32",
        "value": "t_array(t_struct(Transaction)2933_storage)dyn_storage"
      },
      "t_mapping(t_uint256,t_mapping(t_address,t_uint256))": {
        "encoding": "mapping",
        "key": "t_uint256",
        "label": "mapping(uint256 => mapping(address => uint256))",
        "numberOfBytes": "32",
        "value": "t_mapping(t_address,t_uint256)"
      },
      "t_mapping(t_uint256,t_struct(Auction)2924_storage)": {
        "encoding": "mapping",
        "key": "t_uint256",
        "label": "mapping(uint256 => struct Marketplace.Auction)",
        "numberOfBytes": "32",
        "value": "t_struct(Auction)2924_storage"
      },
      "t_mapping(t_uint256,t_struct(Offer)2913_storage)": {
        "encoding": "mapping",
        "key": "t_uint256",
        "label": "mapping(uint256 => struct Marketplace.Offer)",
        "numberOfBytes": "32",
        "value": "t_struct(Offer)2913_storage"
      },
      "t_struct(Auction)2924_storage": {
        "encoding": "inplace",
        "label": "struct Marketplace.Auction",
        "members": [
          {
            "astId": 2915,
            "contract": "contracts/Marketplace.sol:Marketplace",
            "label": "isListing",
            "offset": 0,
            "slot": "0",
            "type": "t_bool"
          },
          {
            "astId": 2917,
            "contract": "contracts/Marketplace.sol:Marketplace",
            "label": "seller",
            "offset": 1,
            "slot": "0",
            "type": "t_address"
          },
          {
            "astId": 2919,
            "contract": "contracts/Marketplace.sol:Marketplace",
            "label": "minPrice",
            "offset": 0,
            "slot": "1",
            "type": "t_uint256"
          },
          {
            "astId": 2921,
            "contract": "contracts/Marketplace.sol:Marketplace",
            "label": "startTime",
            "offset": 0,
            "slot": "2",
            "type": "t_uint256"
          },
          {
            "astId": 2923,
            "contract": "contracts/Marketplace.sol:Marketplace",
            "label": "endTime",
            "offset": 0,
            "slot": "3",
            "type": "t_uint256"
          }
        ],
        "numberOfBytes": "128"
      },
      "t_struct(Offer)2913_storage": {
        "encoding": "inplace",
        "label": "struct Marketplace.Offer",
        "members": [
          {
            "astId": 2908,
            "contract": "contracts/Marketplace.sol:Marketplace",
            "label": "isListing",
            "offset": 0,
            "slot": "0",
            "type": "t_bool"
          },
          {
            "astId": 2910,
            "contract": "contracts/Marketplace.sol:Marketplace",
            "label": "seller",
            "offset": 1,
            "slot": "0",
            "type": "t_address"
          },
          {
            "astId": 2912,
            "contract": "contracts/Marketplace.sol:Marketplace",
            "label": "price",
            "offset": 0,
            "slot": "1",
            "type": "t_uint256"
          }
        ],
        "numberOfBytes": "64"
      },
      "t_struct(Transaction)2933_storage": {
        "encoding": "inplace",
        "label": "struct Marketplace.Transaction",
        "members": [
          {
            "astId": 2926,
            "contract": "contracts/Marketplace.sol:Marketplace",
            "label": "seller",
            "offset": 0,
            "slot": "0",
            "type": "t_address"
          },
          {
            "astId": 2928,
            "contract": "contracts/Marketplace.sol:Marketplace",
            "label": "bider",
            "offset": 0,
            "slot": "1",
            "type": "t_address"
          },
          {
            "astId": 2930,
            "contract": "contracts/Marketplace.sol:Marketplace",
            "label": "price",
            "offset": 0,
            "slot": "2",
            "type": "t_uint256"
          },
          {
            "astId": 2932,
            "contract": "contracts/Marketplace.sol:Marketplace",
            "label": "time",
            "offset": 0,
            "slot": "3",
            "type": "t_uint256"
          }
        ],
        "numberOfBytes": "128"
      },
      "t_uint256": {
        "encoding": "inplace",
        "label": "uint256",
        "numberOfBytes": "32"
      }
    }
  }
}